:020000040800F2
:1000000070090020A5020008AD020008AF02000838
:10001000B1020008B3020008B502000800000000A9
:10002000000000000000000000000000B70200080F
:10003000B902000800000000BB020008AD1900086A
:10004000BF020008BF020008BF020008BF0200088C
:10005000BF020008BF020008BF020008BF0200087C
:10006000BF020008BF020008BF020008BF0200086C
:10007000BF020008BF020008BF020008BF0200085C
:10008000BF020008BF020008BF020008BF0200084C
:10009000BF020008BF020008BF020008BF0200083C
:1000A000BF020008BF020008BF020008BF0200082C
:1000B000BF020008BF020008BF020008BF0200081C
:1000C000BF020008BF020008BF020008BF0200080C
:1000D000BF020008BF020008BF020008BF020008FC
:1000E000BF020008BF020008BF020008BF020008EC
:1000F000BF020008BF020008BF020008BF020008DC
:10010000BF020008BF020008BF020008BF020008CB
:10011000BF020008BF020008BF020008BF020008BB
:10012000BF020008BF020008BF020008BF020008AB
:1001300000F002F800F0A6F814A696E8000CB2440D
:10014000B344DA4501D100F09DF8BAE80F000FA6DC
:1001500096E83000A5EB040504EB0607AAEB0704BC
:10016000A7F101074FEA15154FEA3414A4F1010471
:10017000AC4201D300F086F813F0010F18BFFB1A50
:1001800043F0010300F001F8DBE718477439000081
:1001900094390000103A24BF78C878C1FAD85207C1
:1001A00024BF30C830C144BF04680C6070470000F1
:1001B000704700000023002400250026103A28BFC5
:1001C00078C1FBD8520728BF30C148BF0B607047C9
:1001D0006E2900F06F81702900F0B382662903F068
:1001E0009580652903F09280672903F08F8061294B
:1001F00003F08E8003681B0A28BF41F08001692943
:1002000000F01C81642900F01981752900F0168125
:100210006F2900F04182782900F07F82E92900F0FF
:10022000DB81E42900F0D881F52900F0D581EF29A0
:1002300000F03E82F82900F07E820368DB0928BFC7
:1002400041F08001632900F07F87732900F08487E3
:10025000E32900F08F87F32900F09487002070478E
:100260001FB500F0E5FF04000020002103F038F87E
:10027000401C60600020002103F01CF8E0601FBDFE
:1002800010B510BD00F0A6FF1146FFF7E9FF02F020
:1002900095FA01F083F803B4FFF7F2FF03BC01F015
:1002A000CBF800000948804709480047FEE7FEE711
:1002B000FEE7FEE7FEE7FEE7FEE7FEE7FEE7FEE716
:1002C00004480549054A064B70470000E11A00083A
:1002D0003101000870030020700900207005002023
:1002E000700500200FB41CB50C0007AA009007D0C1
:1002F0004142A14202D32044401E01E04FF0FF30B2
:10030000074B7B4469460190069800F0ECF8002109
:10031000002C01D0009A11701CBC5DF814FB000089
:10032000070200004FF0000200B5134694469646BF
:10033000203922BFA0E80C50A0E80C50B1F12001F8
:10034000BFF4F7AF090728BFA0E80C5048BF0CC0A6
:100350005DF804EB890028BF40F8042B08BF704704
:1003600048BF20F8022B11F0804F18BF00F8012B76
:10037000704770477047704770B5044685690068DC
:10038000C10601D5302600E02026C00707D070BD89
:10039000D4E9012130469047206A401C20626D1E3E
:1003A000F6D570BD70B5044685690078C00707D1E1
:1003B00070BDD4E9012120209047206A401C2062B2
:1003C0006D1EF6D570BD09684A0501D540B270476B
:1003D000C905FCD500B2704709684A0501D5C0B20D
:1003E0007047C905FCD580B2704770B50C4605460C
:1003F000012A05D02878800600D5EA69002302E0AA
:10040000012305E05B1C934202D2E05C0028F9D195
:10041000A869E618C01AA861286A18442862284604
:10042000FFF7AAFF04E0D5E9012114F8010B90477A
:10043000B442F8D32846FFF7B5FF70BD2DE9F0416F
:100440000646002410687529314616A510D0FFF71E
:10045000BAFF002802DA404213A507E031688A0794
:1004600001D512A502E0490704D511A5012401E038
:10047000FFF7B2FF00210A2206F1240709E0B0FBD2
:10048000F2FCB0FBF2F302FB1C003030785418464B
:10049000491C0028F3D123462A463046BDE8F041E6
:1004A00000F063BA000000002D0000002B000000E7
:1004B0002000000011680268006A530501D5087029
:1004C0000AE0D30501D5088006E0130603D5C2175C
:1004D000C1E9000200E008600120704701694A1C80
:1004E00002610878704700B58FB0CDE90131002175
:1004F000059105497944CDE903101146684600F09D
:100500002BF90FB000BD0000E5FFFFFFD1E900238C
:100510009A4202D2531C0B60107070472DE9FF5FA6
:1005200015468A460446DFF8AC80F8440027D8E92F
:1005300000103E46CDE9001010E03AF816106A4669
:1005400002A800F023FE411C07D02178890603D5BC
:10055000E269391891420DD80744761C207880064C
:1005600002D5E069B84205DDAE42E6DB3AF8160096
:100570000028E2D1A069C01BA0612046FFF7FCFE65
:10058000D8E90010CDE90010002017E03AF8181063
:100590006A4602A800F0FAFDB0F1FF3F81460BD099
:1005A00000250DF1080B05E0D4E901211BF8050039
:1005B00090476D1C4D45F7D308F10100B0428046CD
:1005C000E4DB206A384420622046FFF7EBFEBDE8FA
:1005D000FF9F0000E62D00002DE9F0418046D21D6E
:1005E00022F007020025D2E90002F52915A614D051
:1005F000011E72F1000106DA0023D0EB030063EB69
:10060000020211A608E0D8F800108B0701D50FA64A
:1006100002E0490701D50EA601251146002408F184
:10062000240704E000F05CF930323A55641C50EACB
:100630000102F7D12B46324621464046BDE8F04143
:1006400000F093B9000000002D0000002B00000016
:100650002000000030B4002100F1240408E002F082
:100660000705D208303542EA4372DB086554491C5D
:1006700052EA0305F3D10468002310A2250708D528
:1006800004F020040C4304D0C46901230CA2641EAE
:10069000C46130BC00F069B910B504462146106849
:1006A000FFF79AFE02462046BDE810400023D1E73E
:1006B000D21D22F00701D1E90023CBE700000000A2
:1006C00030000000F0B40D460188090502D5214C28
:1006D0007C4402E01F4C7C440E34002100F12406CF
:1006E00008E002F00F071209E75D42EA03721B09F6
:1006F0007754491C52EA0307F3D10278002312070A
:1007000004D5702D06D009B1022311342246F0BC65
:1007100000F02BB901231034F8E770B504460D46FC
:1007200021461068FFF758FE024629462046BDE8DC
:1007300070400023C6E7D21D22F00703D3E900234F
:10074000C0E70368126843F0200303600823C36115
:100750000023B7E7482C00002DE9F05F89460446E6
:100760004FF0000ADFF874B1FB44C0F820A0204627
:10077000E1688847002874D0252806D0D4E90121F3
:100780009047206A401C2062F1E700265F46204621
:10079000E16888472028054607DB312D05D2781906
:1007A00010F8200C08B10643F1E7B00701D526F098
:1007B0000406C4F81CA00027C4F818A02A2D09D0EC
:1007C000284602F06FFD38B304EB8708303DC8F8C7
:1007D000185019E059F8041B204604EB8702916178
:1007E000E1688847012F054618D1E069002820DA22
:1007F00026F020061DE0D8F8180000EB800005EB7D
:1008000040003038C8F818002046E168884705469F
:1008100002F048FD0028EED1012F0AD02E2D08D17C
:100820002046E16888477F1C0546022F46F02006D7
:10083000C4DBA069002803DA404246F00106A0614B
:10084000F00701D026F010066C2D0BD0682D09D0D2
:100850004C2D39D06A2D35D0742D35D07A2D33D02A
:1008600016E038E0E1682F4620468847B842054642
:1008700009D16C2F26D04FF48060E16806432046F2
:100880008847054604E06C2F1AD04FF48070064369
:100890000DB3A5F14100192802D8203546F40066B1
:1008A0004A462946204626604E46FFF791FC80B115
:1008B00001280BD0F61D26F0070000F1080956E7C5
:1008C0004020E4E78020D8E70020D6E706F10409BD
:1008D0004DE7284652E7206ABDE8F09FD82B00007C
:1008E00030B5B0F10A0271F100034FEA900E4EEA02
:1008F000817EB0EB0E0061EB91014FEA101E4EEAD3
:10090000017E10EB0E0041EB11114FEA102E4EEA62
:10091000016E10EB0E0041EB11214FEA104E4EEA32
:10092000014E10EB0E0041EB1141401841F1000166
:100930004FEAD00040EA41704FEAD1014FEA81040A
:1009400044EA907410EB800544EB01046D1944EB0C
:100950000404521BA3414FF0000348BF0A3200D5E4
:1009600030BD401C41F1000130BD2DE9F0470D467E
:1009700099469246044600F124080168880604D589
:10098000E06921F01001216000E00120A84201DDB2
:10099000471B00E00027A1697A1902EB0900081A39
:1009A000A0612078C00602D42046FFF7E5FC0026AF
:1009B00008E0D4E901211AF806009047206A401C9B
:1009C000761C20624E45F4DB2078C0060AD520460E
:1009D000FFF7D2FC06E0D4E9012130209047206ADD
:1009E000401C2062381EA7F10107F4DC07E0D4E9BF
:1009F000012118F805009047206A401C2062281E3B
:100A0000A5F10105F3DC2046FFF7CCFC20780006B9
:100A100002D50220BDE8F0870120FBE72DE9FF4F5A
:100A20000C461E464FF0FF378BB0D2E90001DDF8CF
:100A300060800A908A46C1F30A5505B93D460021F7
:100A400008464FF00000BAF1000F00F4400005DA4C
:100A500000EB80004FF4400101EA50004FEA90594A
:100A6000B9F1010F00DDB9460A9850EA4A000ED0EC
:100A700044F61050A5F2FF3545432F14B8F1000F8E
:100A80001ED07542291E1EDDC9F100021CE0B8F11E
:100A9000010F4FF0000001D0302103E0F24305E0E8
:100AA0002154401CB042FBDB30460022002121547F
:100AB0000B99C1F80880C1E900200FB0BDE8F08FA4
:100AC000BD1B6D1CDEE74A4600DA694206A800F04D
:100AD000F3FB06AB93E8070003AB83E8070050463F
:100AE0000A9902F002F88DE80700A0F500501F38BF
:100AF00000900398002D0ADD42F21F014A46084487
:100B0000002303A90390684602F06CFA09E0A0F5FF
:100B100000504A461F38002303A90390684602F09C
:100B200076FA8DE807000004000C03D04FF0FF3088
:100B3000410800E01046B8F1000F03D000220092F7
:100B400015461EE0751E05D4FFF7CAFE3032625509
:100B50006D1EF9D5B3460122084302D000227F1C46
:100B600004E02078302801D100227F1E002A099756
:100B700084D01DE0112D07DAFFF7B2FE3032625546
:100B80006D1C50EA0102F5D1084302D00098C8B1AB
:100B90000EE00021681E05E0235C625C6354225471
:100BA000401E491C8142F7DBAB46A81B401E099042
:100BB000002004F80B000B98099AC0F80880C0E9DF
:100BC000002B7AE711264FF0000857E72DE9F04F88
:100BD00088460446D21D22F0070191B0D1E90001F8
:100BE000CDE90A0102F04AFB02460B98C00F01D082
:100BF0002D2007E02068810701D52B2002E020216D
:100C000001EAC000032A099001D0072A05DB034648
:100C10004146204600F010FB0BE12078800601D50C
:100C2000E06900E00620B8F1650F814606D0B8F112
:100C3000660F18D0B8F1670F70D131E00020B9F11C
:100C4000110F009001DB112301E009F101030AAA51
:100C500001A90CA8FFF7E2FEDDE90C70002609F1FE
:100C60000105834647E001204B4600904FF00047C6
:100C70000AAA01A90CA8FFF7D1FEDDE90DB00C9975
:100C80005D46002610B909F101000D18B9EB050009
:100C900003D4C0F1FF3609F10105A5EB09002BE0F3
:100CA000B9F1010F01DA4FF001090020B9F1110F7C
:100CB0000090484601DD112300E003460AAA01A97D
:100CC0000CA8FFF7ABFEDDE90C704D46002683460D
:100CD000207800070AD4AB4500DA5D4601A8012D53
:100CE00004DD411911F8011C302907D04F4502DA03
:100CF00017F1040F04DA012082460FE06D1EEEE7C3
:100D0000002F02DCED1B3E4403E0781CA84200DD0E
:100D10007D1CB81B00F1010A4FF000472078000746
:100D200003D4AA4501DB4FF0FF3A0021B7F1004F91
:100D30000DF143088DF8431024D002202B23002FFF
:100D400001DA7F422D230A21021EA0F1010000DCFE
:100D50005FB197FBF1FC97FBF1F201FB1C7C17469E
:100D60000CF1300C08F801CDEEE7A8F1010003709A
:100D70002188090501D5452100E06521A0F1010880
:100D800000F8011C09980FA9A1EB0807FF1D00B18D
:100D90000120411901EBEA70A1693844081A401E8C
:100DA000A0612078C00602D42046FFF7E5FA099832
:100DB00028B1D4E901219047206A401C20622078A4
:100DC000C00622D52046FFF7D7FA1EE0002E04DB2E
:100DD000B34502DD01A8805D00E03020D4E90121A7
:100DE0009047206A401C2062761CAAF101005FEA4D
:100DF000000A0AD100F01CFAC0680168405CD4E91E
:100E000001219047206A401C2062281EA5F101059F
:100E1000DCDC07E0D4E9012118F8010B9047206AD7
:100E2000401C2062381EA7F10107F3DC2046FFF7C3
:100E3000B9FA032011B041E62DE9F04F04460D4602
:100E4000D21D22F0070089B0D0E900974846394604
:100E500002F014FA0246F80F01D02D2307E02068B3
:100E6000810701D52B2302E0202101EAC0038DF880
:100E700020300BB1012000E00020032A824601D07F
:100E8000072A04DB2946204600F0D6F93FE1207806
:100E9000800601D40D2500E0E569C7F30A560D2D43
:100EA00049DA00214FEA175B08464FF00000002F97
:100EB00000F4400007DA00EB80004FF4400100EB43
:100EC000D07001EA60008115012901DD4FF0FF318A
:100ED00000224FEA850CBCF1180F06D31346ACF183
:100EE00018004FF08052C24003E04FF4801323FA01
:100EF0000CF30CF10C0CBCF1200F04D3ACF1200C62
:100F000009FA0CF001E007FA0CF000294FF0004854
:100F100001DD18B90FE00ED140450CD319EB0209E1
:100F20005F4121B9404502D19F4329EA0209BBEB49
:100F3000175F00D0761C2088000502D57B487844D6
:100F400002E07A487844193808AA302302F80A30B7
:100F5000037C0AF10101002E0AF1020A53546A4689
:100F600002DC4FF0300101E04FF031014FF0010899
:100F70008DF8001002D0A6F2FF3603E059EA4701CF
:100F800000D06B4E002D02DC2178090704D54FF00C
:100F900002082E218DF80110C44600210BE0C7F392
:100FA00003433F01C35C491C6D1E02F8083005294C
:100FB00008F1010801DA002DF1DC00210CE000EB62
:100FC0001973491C1B786D1E082902F808304FEA76
:100FD000091908F1010801DA002DF0DC21688B06FF
:100FE00002D516E0A8F10108E04505DD02EB080393
:100FF00013F8013C302BF5D0B8F1000F09DD02EBFE
:10100000080313F8013C2E2B03D1090701D4A8F1E2
:101010000108002D05DD3E2102F808106D1E08F1C3
:101020000108407C002E02F8080008F1010804DAEB
:101030002D20764202F8080002E02B2002F808007A
:101040000A214FF47A70864208F101080BDB96FB07
:10105000F0F3303302F8083096FBF0F308F10108A2
:1010600000FB136601E0642E0CDB642096FBF0F3BA
:10107000303302F8083096FBF0F308F1010800FB6A
:10108000136601E00A2E06DB96FBF1F0303002F821
:10109000080008F1010896FBF1F001FB1060303008
:1010A00002F80800A16908F1010808EB050202EB4B
:1010B0000A00081AA0612078C00602D42046FFF773
:1010C0005BF9216A08AE01EB0A00206204E0D4E972
:1010D000012116F8010B9047BAF1010AF7D22078E6
:1010E000C00602D52046FFF747F96E4609E016F81C
:1010F000010B3E280FD0D4E901219047206A401C03
:101100002062B8F10108F2D22046FFF74BF909B08E
:101110000320BDE8F08F206A2844206203E0D4E970
:101120000121302090476D1EEBD3F8E72624000004
:1011300002FCFFFF10B5436913B1AFF3008001E07B
:10114000FFF753F9012010BD127800F124010A7055
:1011500000224A700122EDE711684FF0FF32E9E703
:1011600010B5436913B1AFF3008001E0FFF7D6F982
:10117000012010BD128800F1240182840022C28463
:101180000122EDE711684FF0FF32E9E72DE9F04168
:1011900016460C46054600F043F8036893F8010133
:1011A000012807D0FF2C12D8185D80B101202C70C7
:1011B000BDE8F081D3F807013246214603F2071358
:1011C000C7182846BC46BDE8F041002360474FF0F1
:1011D000FF30EDE7754600F0EBF8AE4605006946D6
:1011E000534620F00700854618B020B5FFF768F891
:1011F000BDE820404FF000064FF000074FF0000818
:101200004FF0000BAC46ACE8C009ACE8C009ACE854
:10121000C009ACE8C00921F007018D467047000005
:1012200010B500F005F8001D10BD00BFB52000008E
:1012300000487047280000202DE9F0411F46044671
:1012400003260168072A01F4006004DB08B116A533
:1012500005E016A503E008B115A500E015A521F0ED
:1012600010002060A069C01EA0610FB1401EA061E7
:101270002046FFF781F84FB1D4E901213846904765
:10128000206A401C2062C01C206206E0206AFAE747
:10129000D4E9012115F8010B9047761EF8D22046BB
:1012A000FFF780F8BDE8F0814E414E006E616E00A0
:1012B000494E4600696E66002DE9F04781461646A4
:1012C0008AB0354878440DC88DE80D00324878441E
:1012D000801C03AC0DC884E80D0041F69B30084427
:1012E000372190FBF1F290FBF1F5A5F1800501FBB0
:1012F00012041B3C02D56442012000E00020DFF80C
:1013000098A080460027FA44AAF1BE0A0EE0E00742
:101310000AD03246684607EB470101230AEB8101F8
:1013200001F075FE8DE8070064107F1C002CEED1E3
:10133000194F7F44AE3F19E0E80715D007EB0410C2
:101340000DF1180A90E80E008AE80E00C068F0421D
:1013500001D1981908903246012306A903A801F08B
:1013600056FE03AB83E807006D10641C002DE3D12B
:101370004FF0010332466946B8F1000F03A802D0CE
:1013800001F030FE01E001F042FEC9E90001C9F8B8
:1013900008200AB0BDE8F0873021000010B50446EF
:1013A000AFF300802046BDE81040FEF774BF000098
:1013B00000487047080000204FF0013C50F8042B13
:1013C00051F8043B9A4221D1A2EB0C03934313EA58
:1013D000CC1317D150F8042B51F8043B9A4215D185
:1013E000A2EB0C03934313EACC130BD150F8042B5C
:1013F00051F8043B9A4209D1A2EB0C03934313EA40
:10140000CC13DBD04FF00000704700BFD01A01BAF8
:10141000B1FA81F101F0180122FA01F0CB40DBB200
:10142000C0B2C01AC1F120012CFA01F3D11A9143C4
:1014300011EAC311E6D1704701491820ABBEFEE79F
:10144000260002007047000088B007900691002037
:101450000590049003900290019000900698C07847
:1014600000F00F0005900698C078C006002806D549
:10147000FFE706988178059808430590FFE70698EE
:10148000007800284BD0FFE7079800680190002003
:101490000390FFE7039807283DD8FFE70399012051
:1014A00088400290069800880299084004900498A9
:1014B000029988422AD1FFE703988000029002999E
:1014C0000F2088400090009901988843019005986A
:1014D000029900FA01F10198084301900698C0783A
:1014E000282806D1FFE70399012088400799486121
:1014F0000BE00698C078482806D1FFE70399012041
:10150000884007990861FFE7FFE7FFE7FFE70398D7
:1015100001300390BEE7019807990860FFE706983D
:101520000088B0F5807F50DBFFE7079840680190A6
:1015300000200390FFE70398072842D8FFE70398AD
:1015400000F1080101208840029006980088029965
:10155000084004900498029988422DD1FFE703982F
:101560008000029002990F20884000900099019815
:10157000884301900598029900FA01F10198084307
:1015800001900698C078282808D1FFE7039800F159
:1015900008010120884007994861FFE70698C07854
:1015A000482808D1FFE7039800F10801012088408E
:1015B00007990861FFE7FFE7FFE703980130039011
:1015C000B9E7019807994860FFE708B07047000045
:1015D00082B00190ADF8021000208DF80100019852
:1015E0008068BDF80210084204D0FFE701208DF8A2
:1015F000010003E000208DF80100FFE79DF80100E5
:1016000002B0704782B00190ADF80210BDF8020040
:101610000199486102B0704782B00190ADF80210A4
:10162000BDF802000199086102B0704781B00090D6
:1016300000994FF6FF700880009902208870009989
:101640000420C87001B0704782B001908DF803107B
:101650009DF8030048B1FFE7019A41F21C01C4F272
:10166000020108681043086008E0019A41F21C0179
:10167000C4F20201086890430860FFE702B07047B7
:1016800082B001908DF803109DF8030048B1FFE788
:10169000019A41F21801C4F202010868104308607F
:1016A00008E0019A41F21801C4F20201086890436F
:1016B0000860FFE702B0704786B0059000200490F4
:1016C00003900290019041F20400C4F2020000680D
:1016D00000F00C0004900498009040B1FFE70098DF
:1016E00004280BD0FFE7009808280ED047E00599A2
:1016F00041F20020C0F27A00086047E0059941F20B
:101700000020C0F27A00086040E041F20400C4F218
:101710000200016801F470110391006800F4803048
:1017200002900399022000EB91400390029848B97F
:10173000FFE7039840F60011C0F23D0148430599C8
:1017400008601BE041F20400C4F20200006880035C
:10175000002809D5FFE7039840F60011C0F23D01CB
:1017600048430599086008E0039841F20021C0F25F
:101770007A01484305990860FFE7FFE706E005990D
:1017800041F20020C0F27A000860FFE741F2040055
:10179000C4F20200016801F0F00104910499090902
:1017A0000491049A43F22441C0F600018A5C01923C
:1017B000059B1A68DDF804C022FA0CF25A60026830
:1017C00002F4E0620492049A120A0492049A8A5C77
:1017D0000192059B5A68DDF804C022FA0CF29A6067
:1017E000026802F460520492049AD20A0492049AA3
:1017F000895C0191059A5168019BD940D1600068CC
:1018000000F4404004900498800B0490049943F243
:101810001040C0F60000405C01900599C868019A2C
:10182000B0FBF2F0086106B07047000080B500F030
:1018300001F880BD84B000200390029041F20001C5
:10184000C4F20201086840F480300860FFE741F20A
:101850000000C4F20200006800F400300290039817
:1018600001300390FFE702990020019039B9FFE7AA
:101870000398B0F5A06018BF01200190FFE7019820
:10188000C0070028E3D1FFE741F20000C4F20200E4
:1018900000688003002803D5FFE70120029002E0E2
:1018A00000200290FFE70298012851D1FFE742F2A1
:1018B0000001C4F20201086840F0100008600868E6
:1018C00020F007000860086840F00200086041F25C
:1018D0000401C4F202010091086808600868086009
:1018E000086840F480600860086820F47C10086094
:1018F000086840F4E810086041F20001C4F20201F7
:10190000086840F080700860FFE741F20000C4F210
:10191000020000688001002801D4FFE7F5E741F2EA
:101920000401C4F20201086820F00300086008689E
:1019300040F002000860FFE741F20400C4F2020038
:10194000006800F00C00082801D0FFE7F4E700E091
:10195000FFE704B07047000080B582B000900098A7
:101960000138B0F1807F03D3FFE70120019019E037
:10197000009801384EF21401CEF2000108604FF0D9
:10198000FF300F2100F0C0FA4EF21801CEF2000134
:10199000002008604EF21002CEF200020721116012
:1019A0000190FFE7019802B080BD000040F268019D
:1019B000C2F20001086801300860704784B000205E
:1019C00003900290019041F20400C4F2020000680A
:1019D00000F00C0003900398009040B1FFE70098DE
:1019E00004280ED0FFE70098082814D056E040F2F3
:1019F0000001C2F2000141F20020C0F27A0008604A
:101A000056E040F20001C2F2000141F20020C0F2B3
:101A10007A0008604CE041F20400C4F20200016860
:101A200001F470110291006800F480300190029975
:101A3000022000EB91400290019860B9FFE7029804
:101A400040F60011C0F23D01484340F20001C2F2ED
:101A50000001086021E041F20400C4F202000068C5
:101A6000800300280CD5FFE7029840F60011C0F271
:101A70003D01484340F20001C2F2000108600BE062
:101A8000029841F20021C0F27A01484340F200017D
:101A9000C2F200010860FFE7FFE709E040F2000141
:101AA000C2F2000141F20020C0F27A000860FFE7B4
:101AB00041F20400C4F202000068C0B2010943F21E
:101AC0001440C0F60000405C0390039A40F200010D
:101AD000C2F200010868D040086004B070470000FE
:101AE00080B541F20002C4F20202106840F0010029
:101AF000106041F20401C4F2020108680023CFF62D
:101B0000FF031840086010684FF6FF73CFF6F663C6
:101B100018401060106820F480201060086820F4DD
:101B2000FE00086041F20801C4F202014FF41F00F8
:101B30000860FFF77BFE4EF60851CEF200014FF031
:101B40000060086080BD000082B001908DF8031035
:101B50009DF8030030B1FFE70199088840F00100CB
:101B6000088005E00199088820F001000880FFE75F
:101B700002B0704781B000900098808C01B070472F
:101B800082B00190ADF80210BDF80200019988847E
:101B900002B0704783B0029001910020ADF80200BE
:101BA00002980088ADF80200029842F60041C4F2A3
:101BB0000101884225D0FFE7029843F20041C4F2B8
:101BC000010188421DD0FFE70298B0F1804F18D084
:101BD000FFE7029840F20041C4F20001884210D0B1
:101BE000FFE7029840F60001C4F20001884208D0E5
:101BF000FFE7029840F60041C4F2000188420ED18E
:101C0000FFE7BDF8020020F07000ADF80200019877
:101C10004188BDF802000843ADF80200FFE70298D2
:101C200041F20001C4F20001884216D0FFE7029899
:101C300041F20041C4F2000188420ED0FFE7BDF836
:101C4000020020F44070ADF802000198C188BDF890
:101C500002000843ADF80200FFE7BDF80200029958
:101C600008800198808802998885019800880299E7
:101C70000885029842F60041C4F20101884220D052
:101C8000FFE7029843F20041C4F20101884218D0F4
:101C9000FFE7029844F20001C4F20101884210D02B
:101CA000FFE7029844F20041C4F20101884208D0E3
:101CB000FFE7029844F60001C4F20101884205D111
:101CC000FFE70198007A02990886FFE70299012050
:101CD000888203B07047000081B0009000994FF6F1
:101CE000FF7088800099002008800099C8800099C2
:101CF00048800099087201B07047000082B00190DE
:101D00008DF803109DF8030030B1FFE70199888931
:101D100040F40050888105E00199888920F4005042
:101D20008881FFE702B0704782B00190ADF80210E1
:101D300000208DF80100BDF80200B0F5007F01D150
:101D4000FFE7FFE701980088BDF802100840000493
:101D500020B1FFE701208DF8010003E000208DF89D
:101D60000100FFE79DF8010002B0704780B58CB01C
:101D70000B900A910020099008900790069005901A
:101D80000A98808908B1FFE7FFE70B9805900B9848
:101D9000008A099009984CF6FF71084009900A984A
:101DA000C18809980843099009980B9908820B98F3
:101DB0008089099009984EF6F311084009900A9914
:101DC00088880A8910434989014309980843099082
:101DD00009980B9988810B98808A099009984FF689
:101DE000FF41084009900A988189099808430990A1
:101DF00009980B9988826846FFF75EFC059843F6C0
:101E00000001C4F20101884203D1FFE70398089062
:101E100002E002980890FFE70B98808900040028F0
:101E20000AD5FFE70898192148430A99096849002B
:101E3000B0FBF1F0079009E00898192148430A998E
:101E400009688900B0FBF1F00790FFE7079848F2B6
:101E50001F51C5F2EB11A0FB01016FF00F0000EA6A
:101E600051000990079A09980009642100FB11208C
:101E700006900B9880890004002810D5FFE706998A
:101E8000322000EBC10048F21F51C5F2EB11A0FB5C
:101E90000110C0F342110998084309900FE0069918
:101EA000322000EB011048F21F51C5F2EB11A0FBEC
:101EB0000110C0F34311099808430990FFE70998FE
:101EC0000B9908810CB080BD82B00190ADF8021072
:101ED000BDF802006FF35F200199888002B070475F
:101EE00081B0009000994FF41650086000990020CE
:101EF00088800099C88000990881009A0C2151813E
:101F00000099888101B0704782B08DF80700009178
:101F10009DF9070000280AD4FFE7009800019DF909
:101F200007104EF20042CEF2000288540BE00098F7
:101F300000019DF8071001F00F014EF61452CEF289
:101F400000028854FFE702B07047000080B58AB0F5
:101F500044F2040001210491FFF792FB09A80190CB
:101F6000FFF764FB01994FF40070ADF824000320E3
:101F70008DF8260018208DF8270040F60000C4F2E6
:101F800001000090FFF760FA009801994FF4806219
:101F9000ADF8242004228DF82720FFF755FA05A874
:101FA0000290FFF79DFF02994FF4E1300590002069
:101FB000ADF81800ADF81A00ADF81C00ADF820001F
:101FC0000C20ADF81E0043F60000C4F2010003909F
:101FD000FFF7CCFE03980499FFF790FE0AB080BD8E
:101FE00080B584B003900291039890F82C0070B1F2
:101FF000FFE70398426A029B40F26D00C2F20000C4
:102000004FF4407100F00EF98DF8070011E00398CD
:10201000426A029B90F821006946086040F26D0018
:10202000C2F200004FF4407100F0A6F88DF80700EE
:10203000FFE79DF80700039900F002F804B080BDA7
:1020400080B582B08DF8070000919DF8070068B94F
:10205000FFE740F26D00C2F200004FF4407100F063
:10206000F1FB0099486A01304862FFE702B080BD89
:1020700080B588B007900691079890F82C00B8B901
:10208000FFE70798426A069B90F8210069460860BE
:1020900040F26D00C2F200004FF4407100F06CF8A5
:1020A0008DF817009DF817000799FFF7C9FF32E078
:1020B000079803A900F020FA8DF80B009DF80B009B
:1020C00088B9FFE70798426A069B694603A808603B
:1020D00040F26D00C2F200004FF4407100F038F998
:1020E0008DF80A0011E00798426A069B9DF80B00E4
:1020F0006946086040F26D00C2F200004FF4407182
:1021000000F03AF88DF80A00FFE79DF80A000799F9
:10211000FFF796FFFFE708B080BD000080B586B0EE
:10212000042002900121FFF7ABFA05A80490FFF705
:102130007DFA049920200090ADF8140003208DF85A
:102140001600102001908DF8170040F60000C4F230
:1021500001000390FFF778F900990398FFF752FA0E
:10216000019B029A03980499ADF814308DF817205A
:10217000FFF76AF906B080BDB0B592B084461698F4
:10218000CDF840C00F910E920D938DF8330010984A
:1021900018B1FFE70F9820B9FFE702208DF847003C
:1021A0003CE010980A900F9807900E9808900D98B0
:1021B00006909DF8330000F035FA09909DF8330041
:1021C00000F074FA069A0799089BDDF824E00446AB
:1021D0000A98EC4647F23055CCF81450CCF8104031
:1021E000CCF80CE043F6DD2EC0F6000ECCF808E08B
:1021F00043F69A2EC0F6000ECCF804E0CCF800208E
:1022000043F26162C0F60002FEF76CF80B900B9887
:102210000F9900F0FDFA8DF84700FFE79DF84700A1
:1022200012B0B0BD10B59EB01C901B911A921993BC
:102230001C9818B1FFE71B9820B9FFE702208DF822
:10224000770081E01C981B991A9B199AEC46CDF8EF
:102250005CC04FF0050ECCF854E043F6982ECCF855
:1022600050E042F2107ECCF84CE043F6DD2EC0F692
:10227000000ECCF848E04FF0640ECCF844E047F292
:10228000305ECCF840E00A24CCF83C4044F24024D4
:10229000C0F20F04CCF83840CCF834E04FF0470ED1
:1022A000CCF830E043F6B72EC0F6000ECCF82CE0A8
:1022B00043F6AF2EC0F6000ECCF828E043F6B32E5E
:1022C000C0F6000ECCF824E043F6CD2EC0F6000E8A
:1022D000CCF820E043F6C42EC0F6000ECCF81CE08B
:1022E00043F6C02EC0F6000ECCF818E043F6D62E0A
:1022F000C0F6000ECCF814E043F6872EC0F6000EB0
:10230000CCF810E043F6BC2EC0F6000ECCF80CE082
:1023100043F6A72EC0F6000ECCF808E043F69A2E3E
:10232000C0F6000ECCF804E0CCF8002043F2817235
:10233000C0F60002FDF7D6FF189018981B9900F020
:1023400067FA8DF87700FFE79DF877001EB010BDA3
:10235000B0B58CB0DDF840C00A900991089207939F
:102360000A9830B1FFE7099818B1FFE7109820B933
:10237000FFE702208DF82F002AE00A980999089BB0
:10238000079ADDF840C0DCF800E0BCF8044043F6F2
:10239000DD25C0F60005EC46CCF81050CCF80C401A
:1023A000CCF808E043F69A2EC0F6000ECCF804E014
:1023B000CCF8002043F27F52C0F60002FDF792FFF6
:1023C00006900698099900F023FA8DF82F00FFE790
:1023D0009DF82F000CB0B0BD80B584B00290019183
:1023E000029898B1FFE7019880B1FFE70198006873
:1023F00060B1FFE70198406840B1FFE7019880684D
:1024000020B1FFE70198C06820B9FFE707208DF8E9
:102410000F002CE00299DDF804C0DCF80000DCF8C5
:102420000420DCF80830DCF80CC0C1F80CC08B606C
:102430004A600860029947F231500861029947F2F8
:1024400030504861029944F68070C0F212008861F1
:1024500002990A20888302990120887702980168EE
:1024600000200090884700988DF80F00FFE79DF846
:102470000F0004B080BD000083B00190019840F2CD
:102480005711484300F57A7044F6D351C1F2620106
:10249000A0FB0110C00900900098B0F5803F05D363
:1024A000FFE74FF6FF70ADF80A0003E00098ADF8C3
:1024B0000A00FFE7BDF80A0003B0704784B002903D
:1024C00001910092009818B9FFE70020039010E0F6
:1024D00001980299884205D3FFE701980299401AB2
:1024E000039006E000980299401A0199084403906D
:1024F000FFE7039804B0704780B58CB00A9009914B
:102500000A9838B1FFE7099820B1FFE70A98807F61
:1025100020B9FFE707208DF82F007FE00999002000
:1025200003900860099988800A9880688047039919
:1025300008900A98089A012300F09AFA8DF81F0073
:102540009DF81F0048B1FFE70A98016800208847FE
:102550009DF81F008DF82F0060E00A9801680020A8
:10256000019088470A9801680120029088470A98DC
:10257000C168808B884701980A99096888470A983A
:1025800080688047029908900A98089A022300F010
:102590006FFA8DF81F009DF81F0028B1FFE79DF826
:1025A0001F008DF82F0039E00A9880688047069058
:1025B0000A98069A0021032300F05AFA8DF81F00AA
:1025C0009DF81F0028B1FFE79DF81F008DF82F0030
:1025D00024E00A98806880470590069805990A9A31
:1025E0001269FFF76BFF0490049800F0A3F88DF8D0
:1025F0001F009DF81F0028B1FFE79DF81F008DF810
:102600002F000BE00498099908600498FFF734FF45
:102610000999888000208DF82F00FFE79DF82F0092
:102620000CB080BD83B08DF807009DF8070001460F
:102630000091072831D80099DFE801F0040A10164C
:102640001C22282E43F2BE40C0F6000002902AE071
:1026500043F2EC40C0F60000029024E043F24950FF
:10266000C0F6000002901EE043F25B50C0F600008E
:10267000029018E043F27940C0F60000029012E0A8
:1026800043F29540C0F6000002900CE043F21D506A
:10269000C0F60000029006E0FFE743F20850C0F6E3
:1026A00000000290FFE7029803B0704783B08DF8F6
:1026B00007009DF8070001460091072831D80099CE
:1026C000DFE801F028040A10161C222E43F26D5098
:1026D000C0F6000002902AE043F25F40C0F600001E
:1026E000029024E043F24440C0F6000002901EE055
:1026F00043F2D840C0F60000029018E043F2375091
:10270000C0F60000029012E043F2C140C0F60000A3
:1027100002900CE043F23D50C0F60000029006E04B
:10272000FFE743F2AF40C0F600000290FFE70298D7
:1027300003B0704782B00090009830B1FFE7009876
:1027400047F23051884204D3FFE706208DF8070096
:1027500003E000208DF80700FFE79DF8070002B0B6
:102760007047000080B582B0019000F007F9019930
:1027700081F82000019890F8200048B1FFE7019906
:10278000042081F821000199002081F82C0012E03A
:10279000019843F23441C0F60001FFF71DFE019994
:1027A00081F82100019991F82100B0FA80F04009E8
:1027B00081F82C00FFE702B080BD000080B590B02A
:1027C00000200F9003A801903021FDF7ABFD019888
:1027D000FFF7C8FF00F0CCF864300D9000F0C8F8A7
:1027E00001460198FFF7FCFBFFE700F0C1F80290FB
:1027F00002980D99401A002808D4FFE70D9864301C
:102800000D90029903A8FFF733FCFFE7EDE7000006
:1028100083B0019000910198B0F1FF3F04DCFFE725
:1028200002208DF80B0008E00199009A00209142E7
:1028300028BF01208DF80B00FFE79DF80B0003B0C7
:102840007047000080B586B00590ADF8121005986D
:1028500038B1FFE740F26C00C2F20000007808B126
:10286000FFE74FE00020ADF81000FFE70598017882
:102870000020029051B1FFE7BDF81010BDF8122002
:1028800000209142B8BF01200290FFE70298C007E4
:10289000C0B3FFE74FF4FA60ADF80E00FFE743F670
:1028A0000000C4F201008021FFF73EFA014600203B
:1028B000019039B9FFE7BDF80E00002818BF0120CC
:1028C0000190FFE70198C00730B1FFE7BDF80E00A7
:1028D0000138ADF80E00E2E7BDF80E0008B9FFE7D9
:1028E00010E00598017843F60000C4F20100FFF7FC
:1028F000EBFA059801300590BDF810000130ADF8F5
:102900001000B3E706B080BD80B584B0ADF80E000E
:1029100000F060F8029000200190FFE7029800901C
:1029200000F058F80146009847F23152FFF7C6FD13
:10293000BDF80E1088420DD2FFE7019801300190DA
:10294000019844F68071C0F21201884201D3FFE77A
:1029500000E0E3E704B080BD80B540F60000C4F2BB
:1029600001001021FEF734FE002818BF012080BDB1
:1029700040F26800C2F200000068704780B582B083
:10298000FFF71CF840F20000C2F20000006844F6B5
:10299000D351C1F26201A0FB01108009FEF7DCFFF8
:1029A00050B1FFE740F26C01C2F200010120087053
:1029B00006208DF8070009E0FFF7B0FB00F02CF8C7
:1029C000FFF7C4FA00208DF80700FFE79DF8070025
:1029D00002B080BD80B541F20000C4F20000FFF7F4
:1029E000C9F880BD80B582B08DF807009DF807005A
:1029F00040B1FFE740F60000C4F201002021FEF7DD
:102A00000BFE07E040F60000C4F201002021FEF7B3
:102A1000F9FDFFE702B080BD80B588B0102001212C
:102A20000491FEF711FE0DF116000190FFF754F925
:102A3000019947F23050ADF81A004720ADF8160062
:102A400000200290ADF81C00ADF8180041F2000023
:102A5000C4F200000390FFF79DF802990398FFF776
:102A60008FF803980499FFF76FF808B080BD000055
:102A700080B588B006908DF8171004928DF80F304D
:102A800000200290FFE70698406880479DF81710E5
:102A9000884222D0FFE7069880688047019004981A
:102AA0000199069A1269FFF709FD0699496988425A
:102AB00005D3FFE79DF80F008DF81F0011E0029885
:102AC00001300290029806998969884204D3FFE791
:102AD00005208DF81F0004E0D5E700208DF81F00C9
:102AE000FFE79DF81F0008B080BD5FEA400C08BFFB
:102AF00091F0000F4FEA8C234FEAC12243EA515173
:102B00004FEA1C5018BF00F5F0404FEA300018BFE4
:102B100041F000415FEA6C5C00F02980BCF1FF3FAE
:102B200008BF40F080407047130C06BF12044FF0FE
:102B3000100C4FF0000C130E04BF12020CF1080C25
:102B4000130F04BF12010CF1040C930F04BF920089
:102B50000CF1020CD30F04BF52000CF1010C114612
:102B60004FF00002A0F11F00A0EB0C00704711F025
:102B7000004F08BF704731F000413FF4D5AF0B0C58
:102B800006BF09044FF0100C4FF0000C0B0E04BFF1
:102B900009020CF1080C0B0F04BF09010CF1040C25
:102BA0008B0F04BF89000CF1020CCB0F04BF49004E
:102BB0000CF1010CCCF1200322FA03F341EA0301EA
:102BC00002FA0CF2A0EB0C0000F1010070470000CB
:102BD00023F07F4720F07F4C80EA030000F00040A4
:102BE000ACEB070303F57C5303F1FF032DE98049A8
:102BF00009B44FEA144324EA03484FEA154B25EA87
:102C00000B4E0FF2042606EB13273E7803FB0667F4
:102C1000C7F5000707FB06F64FEAD64606F102069F
:102C20004FEA543707FB066CCCF1005C4FEA1C47B7
:102C30002CEA074C0CFB06F507FB06F404EB1546E3
:102C40004FEA961649085FEA320234BF00204FF07F
:102C500000404FEAD13706FB07FC4FEA1C4C0CFB47
:102C60000BF7D21B03FB0CF761EB07010CFB0EF714
:102C7000B0EB074072EB17420CFB08F734BFA2EB36
:102C80000742B2EB074261EB17414FEA0C444FEAAF
:102C9000910706FB07FC4FEA1C4C0CFB0BF7B0EB53
:102CA000C74072EB573203FB0CF734BFA2EBC742AD
:102CB000B2EBC74261EB57310CFB0EF7B0EBC7002C
:102CC00072EB57720CFB08F734BFA2EBC702B2EBF2
:102CD000C70261EB57714FEA816141EA92114FEAF5
:102CE000826242EA90124FEA806004EBCC04039FB8
:102CF0004FEAD13706FB07FC4FEA1C4C0CFB0BF7E5
:102D0000D21B03FB0CF761EB07010CFB0EF7B0EBDA
:102D1000074072EB17420CFB08F734BFA2EB0742E7
:102D2000B2EB074261EB17414FEA8C5504EB9C2450
:102D30004FEA910706FB07FC4FEA1C4C0CFB0BF714
:102D4000B0EBC74072EB573203FB0CF734BFA2EB7A
:102D5000C742B2EBC74261EB57310CFB0EF7B0EB49
:102D6000C70072EB57720CFB08F734BFA2EBC70227
:102D7000B2EBC70261EB57714FEA816141EA9211F0
:102D80004FEA826242EA90124FEA806015EB4C25CE
:102D900044F100044FEAD13706FB07FC4FEA1C4C14
:102DA0000CFB0BF7D21B03FB0CF761EB07010CFBD1
:102DB0000EF7B0EB074072EB17420CFB08F734BF7D
:102DC000A2EB0742B2EB074261EB17414FEA8131B8
:102DD00041EA92414FEA823242EA90424FEA803021
:102DE0004FEA0C7615EB1C1544F1000448EA034346
:102DF0004EEA0B484FF0000EB2EB080C71EB0307E4
:102E000024BF624639464EEB0E0E4FF0000B001801
:102E1000524149414BEB0B0BB2EB080C71EB030732
:102E20007BF1000B24BF624639464EEB0E0E4FF08D
:102E3000000B0018524149414BEB0B0BB2EB080C55
:102E400071EB03077BF1000B24BF624639464EEB62
:102E50000E0E51EA020718BF46F0010616EB0E7679
:102E600055F1000254F1000103D5BDE88901BDE828
:102E70000088BDE88901BDE80048B619524141EB20
:102E80000101A3F10103704780807F7E7D7C7B7A06
:102E90007978777676757473727171706F6E6E6D06
:102EA0006C6C6B6A6A6968686766666564646363AC
:102EB00062616160605F5F5E5E5D5D5C5C5B5B5A32
:102EC0005A5959585857575656555555545453539F
:102ED00052525251515050504F4F4F4E4E4D4D4DFA
:102EE0004C4C4C4B4B4B4A4A4A4949494848484745
:102EF0004747474646464545454444444443434383
:102F000043424242424141419C46002B30D477002B
:102F10002BD04FEA37071CB503B44FF010004FF029
:102F20001001BAF1000F06D0BCF1000FDCBF40F079
:102F3000080040F008014FF000000FBCBDE8104051
:102F40000BF1010BBBF1010F08BF5FEA170722BFAE
:102F500012F1010211F101014FF0004143F10003B0
:102F600000F0004043EA00007047F9D35708D0E76B
:102F700046EA06464FEA164613F1400F1FDD13F1ED
:102F8000200FDFBF16430A46002120335B42BED02C
:102F9000C3F1200746EA06464FEA164602FA07F74B
:102FA00046EA070622FA03F2C3F1200701FA07F7FF
:102FB00042EA070221FA03F14FF00003A7E746EACD
:102FC000020646EA06464FEA164646EA0106BCBF36
:102FD00046EA0646360C4FF000034FF000024FF071
:102FE000000194E72DE9804C70B49A46934691E82D
:102FF000380007C831EA400C48BF34EA430C03D517
:10300000FFF7E6FDFFF780FFF0BCBDE8008C2DE97F
:10301000804C70B49A46934691E8380007C810F087
:10302000804F08BF13F0804F03D100F005F8FFF781
:103030006BFFF0BCBDE8008C20F07F4723F07F4C95
:1030400080EA030000F0004007EB0C03A3F57C537B
:10305000A3F1FE0392F0000F00F0B38095F0000F93
:1030600000F077802DE901494FEA114021EA00483C
:103070004FEA144624EA064700FB06FC08FB06F666
:1030800007FB08F818EB06484CEB164C00FB07F75B
:1030900018EB07484CEB17404FEA124B22EA0B4E55
:1030A0004FEA154625EA06470BFB06FC0EFB06F623
:1030B00007FB0EFE1EEB064E4CEB164C0BFB07F708
:1030C0001EEB074E4CEB174B18EB0B0840F10000C2
:1030D00018EB0E0B58EB000840F100008F1A4FF070
:1030E00000014FF000063CBFC943661B14BFB5EB9F
:1030F000040C00213CBFC943F61B4FEA174427EAE2
:1031000004454FEA1C472CEA074C04FB076205FB09
:1031100007F70CFB05F616EB074642EB174204FBDC
:103120000CFC16EB0C4642EB1C421BEB060658EB64
:10313000020241414EEA8E0E46EA9E0601D5BDE8E6
:103140000189B619524141EB0101A3F10103BDE828
:1031500001894FEA144524EA05464FEA114721EA5E
:10316000074C05FB07F406FB07F70CFB06F111EB18
:10317000074144EB174405FB0CFC11EB0C4144EBFD
:103180001C444FEA124722EA074C05FB07F206FBF4
:1031900007F70CFB06F616EB074642EB174205FB5A
:1031A0000CFC16EB0C4642EB1C456A1854F100016E
:1031B00048BF7047B619524141EB0101A3F1010329
:1031C000704795F0000F37D04FEA114221EA0246CE
:1031D0004FEA144724EA074C02FB07F106FB07F706
:1031E0000CFB06F414EB074441EB174102FB0CFC0B
:1031F00014EB0C4441EB1C414FEA154725EA074C00
:1032000002FB07F506FB07F70CFB06F616EB074675
:1032100045EB174502FB0CFC16EB0C4645EB1C423C
:10322000121951F1000148BF7047B619524141EBE4
:103230000101A3F1010370474FEA144524EA054652
:103240004FEA114721EA074C05FB07F106FB07F798
:103250000CFB06F212EB074241EB174105FB0CFC9D
:1032600012EB0C4251EB1C414FF0000648BF704777
:10327000921841EB0101A3F101037047490050EAA4
:10328000C12018BF04204A0D18BF40F0010040F2D1
:10329000FF72B2EB515F08BF40F00200012808BF87
:1032A0000520704730380A2801D2012070470020DD
:1032B0007047000010B500290AD00878002807D010
:1032C00005487844FEF778F8002801D0002010BDAA
:1032D0000248784410BD00005E0800005608000057
:1032E00010B500290AD00878002807D0054878448E
:1032F000FEF762F8002801D0002010BD0248784493
:1033000010BD00004E08000046080000FDF75EBC3E
:10331000FDF792BD000000000000000030313233A4
:1033200034353637383941424344454640305800F9
:10333000303132333435363738396162636465662B
:103340004030780004000008000000000000000287
:1033500000010000103031323334353637383961EE
:1033600062636465667870003031323334353637E5
:10337000383941424344454658500000024000005D
:10338000000000A00000000005400000000000C890
:10339000000000000C4000000000409C0000000005
:1033A000194000000020BCBE0000000034400000B6
:1033B000BFC91B8E00000004B5400000504BCFD0A9
:1033C0006607E2CF010000006C4100003E8251AA76
:1033D000DFEEA73401000000D9420000DCB5A0E216
:1033E0003A301F97FFFFFFFFB4450000FD25A0C83E
:1033F000E9A3C14FFFFFFFFFFF3F00000000008077
:1034000000000000FF3F00000000008000000000FE
:10341000020406080000000000000000010203048E
:10342000060708090000000001020304010203046A
:1034300006070809E529000859290008D5290008C8
:1034400009290008776169745F666F725F65636858
:103450006F5F66616C6C696E675F65646765007756
:103460006169745F666F725F6563686F5F726973CD
:10347000696E675F656467650074696D65725F6337
:103480006F6E66696775726174696F6E5F66616998
:103490006C7572650074696D65725F6D65617375D9
:1034A00072656D656E745F6661696C7572650069E1
:1034B0006E7465726E616C5F7374617465006F6BBE
:1034C0000070756C73655F77696474685F76616CB2
:1034D00069646174696F6E0074696D65725F636FB2
:1034E0006E66696775726174696F6E006563686F97
:1034F0005F6E6F745F6C6F775F6265666F72655F3A
:103500007472696767657200696E7465726E616C6A
:103510005F73746174655F6572726F720070756C51
:1035200073655F77696474685F6F75745F6F665FFA
:10353000626F756E64730074696D65725F6D65614D
:10354000737572656D656E74006563686F5F72692F
:1035500073655F74696D656F7574006563686F5F2F
:1035600066616C6C5F74696D656F75740077616915
:10357000745F666F725F6563686F5F6C6F77007B07
:103580002270726F746F636F6C223A226D61727376
:103590005F73636F75745F73746D33325F73656EE1
:1035A000736F725F74656C656D65747279222C221D
:1035B00076657273696F6E223A312C22736571756C
:1035C000656E6365223A256C752C2274696D65738E
:1035D00074616D705F6D73223A256C752C226D6578
:1035E00073736167655F74797065223A22756C74D4
:1035F0007261736F6E6963222C2273656E736F72D2
:103600005F6964223A222573222C227374617475D7
:1036100073223A226F6B222C227061796C6F616485
:10362000223A7B226563686F5F70756C73655F75A6
:1036300073223A256C752C2264697374616E63651C
:103640005F6D6D223A25752C2264697374616E6317
:10365000655F6D6F64656C223A222573227D7D0A59
:10366000007B2270726F746F636F6C223A226D61FF
:1036700072735F73636F75745F73746D33325F73EE
:10368000656E736F725F74656C656D6574727922B7
:103690002C2276657273696F6E223A312C22736523
:1036A0007175656E6365223A256C752C2274696D9F
:1036B000657374616D705F6D73223A256C752C2291
:1036C0006D6573736167655F74797065223A227501
:1036D0006C747261736F6E6963222C2273656E73F2
:1036E0006F725F6964223A222573222C22737461FF
:1036F000747573223A226572726F72222C22706185
:10370000796C6F6164223A7B226563686F5F7075C4
:103710006C73655F7573223A6E756C6C2C226469EC
:103720007374616E63655F6D6D223A6E756C6C2C9F
:103730002264697374616E63655F6D6F64656C228A
:103740003A222573227D2C226572726F72223A7B97
:1037500022636F6465223A222573222C226F7065E2
:10376000726174696F6E223A222573222C22746969
:103770006D656F75745F7573223A256C757D7D0A72
:10378000007B2270726F746F636F6C223A226D61DE
:1037900072735F73636F75745F73746D33325F73CD
:1037A000656E736F725F74656C656D657472792296
:1037B0002C2276657273696F6E223A312C22736502
:1037C0007175656E6365223A256C752C2274696D7E
:1037D000657374616D705F6D73223A256C752C2270
:1037E0006D6573736167655F74797065223A2273E2
:1037F000656E736F725F6964656E74697479222C8B
:103800002273656E736F725F6964223A2225732298
:103810002C22737461747573223A226F6B222C22EE
:103820007061796C6F6164223A7B2273656E736F8D
:1038300072223A222573222C22636F6E6E656374A6
:103840006F72223A222573222C22636F6E6E65639B
:10385000746F725F70617274223A222573222C2277
:10386000636F6E6E6563746F725F70696E5F6F72A7
:10387000646572223A5B7B2270696E223A312C2297
:103880007369676E616C223A222573227D2C7B223C
:1038900070696E223A322C227369676E616C223A2B
:1038A000222573227D2C7B2270696E223A332C22D2
:1038B0007369676E616C223A222573227D2C7B220C
:1038C00070696E223A342C227369676E616C223AF9
:1038D000222573227D5D2C22747269676765725F91
:1038E00070696E223A222573222C227472696767EE
:1038F00065725F6D6F6465223A22707573685F70E0
:10390000756C6C5F6F7574707574222C22656368BA
:103910006F5F70696E223A222573222C22656368DC
:103920006F5F6D6F6465223A22666C6F6174696EB9
:10393000675F696E707574222C2274696D657222DE
:103940003A222573222C2274696D65725F7072654C
:103950007363616C6572223A25752C2274696D65FA
:10396000725F706572696F64223A25752C227469E2
:103970006D65725F7469636B5F687A223A256C7556
:103980002C22747269676765725F70756C73655F0E
:103990007573223A25752C226563686F5F74696DB3
:1039A000656F75745F7573223A256C752C226D6591
:1039B00061737572656D656E745F706572696F6451
:1039C0005F6D73223A256C752C2264697374616E85
:1039D00063655F756E6974223A226D6D222C2264D4
:1039E000697374616E63655F6D6F64656C223A2202
:1039F0002573222C226563686F5F70726F74656334
:103A000074696F6E223A7B226469726563745F65C4
:103A100063686F5F746F5F636E365F70696E3422C8
:103A20003A2270726F68696269746564222C22732D
:103A300065726965735F7265736973746F725F6FC6
:103A4000686D223A25752C2270756C6C646F776EE8
:103A50005F7265736973746F725F6F686D223A2568
:103A6000752C22746F6C6572616E63655F70657230
:103A700063656E745F6F725F626574746572223A1B
:103A800025757D7D7D0A004234422D50482D4B2DF9
:103A900053284C462928534E2900756C7472617363
:103AA0006F6E69635F310068632D7372303400504C
:103AB0004134005041350054494D3600434E3600E4
:103AC000474E44005041355F5452494700504134FD
:103AD0005F4543484F005643435F3556006E6F6D58
:103AE000696E616C5F3334335F6D5F7065725F73F5
:103AF0005F756E63616C6962726174656400000079
:103B00004C3C000800000020040000009401000864
:103B1000503C00080800002068090000B4010008BB
:103B20001C00000043000000F8FFFFFF0C00000035
:103B30000E0000000F0000002E0000001001000029
:103B400043000000F8FFFFFF00404040404040407D
:103B50004040414141414140404040404040404060
:103B60004040404040404040400502020202020204
:103B70000202020202020202022020202020202053
:103B80002020200202020202020290909090909067
:103B90001010101010101010101010101010101025
:103BA0001010101002020202020288888888888899
:103BB0000808080808080808080808080808080885
:103BC000080808080202020240000000000000008D
:103BD00000000000000000000000000000000000E5
:103BE00000000000000000000000000000000000D5
:103BF00000000000000000000000000000000000C5
:103C000000000000000000000000000000000000B4
:103C100000000000000000000000000000000000A4
:103C20000000000000000000000000000000000094
:103C30000000000000000000000000000000000084
:103C400000000000000000000000000000A24A0484
:04000005080002A548
:00000001FF
